:100000000C942A000C9447000C9447000C94470071
:100010000C9447000C9447000C9447000C94470044
:100020000C9447000C9447000C9447000C94470034
:100030000C9447000C9447000C9447000C94470024
:100040000C9447000C9447000C9447000C94470014
:100050000C94470011241FBECFE5D8E0DEBFCDBF12
:1000600010E0A0E6B0E0E0EBFEE002C005900D92EB
:10007000A03EB107D9F721E0A0EEB0E001C01D928B
:10008000AF31B207E1F70E9476040C9456070C9446
:1000900000000F931F93CF93DF930E9446048C01BF
:1000A0008091E3009091E40008171907C9F160E01E
:1000B00080E00E942E0482E690E00E94920360E0BD
:1000C00080E00E942E049801ADECBCEC0E94470732
:1000D000EC01D695C795D695C795D695C795BE011F
:1000E00080E090E00E94A8038EE20E948F03CE0180
:1000F000880F991FCC0FDD1FCC0FDD1FCC0FDD1F2C
:10010000C80FD91FB8016C1B7D0B80E090E00E94E6
:10011000A80383E40E948F031093E4000093E3009C
:100120008091E3009091E4008935924068F10E944B
:100130005B04EC018091E1009091E200C817D907BF
:1001400019F160E081E00E942E0482E690E00E94B6
:10015000920360E081E00E942E049E01ADECBCECB5
:100160000E944707969587959695879596958795CA
:10017000BC0180E090E00E94A80385E20E948F030A
:10018000D093E200C093E100DF91CF911F910F91D6
:1001900008956AE080E00E942E0489E690E00E94C3
:1001A000920360E084E10E94490660E081E00E94E1
:1001B0002E0482E690E00E94920360E080E10E94BB
:1001C000490660E081E10E94490661E082E10E9407
:1001D000490608956AE080E00E942E048EE690E0D1
:1001E0000E94920361E084E10E94490660E082E19E
:1001F0000E94490661E081E10E94490660E080E1D9
:100200000E9449060895DC0140E007C0FB01E20FAF
:10021000F31F3081931311C04F5F242F30E0FD0195
:10022000E20FF31F90819111F1CFFB01E20FF31F59
:100230008081981721F085E5089585E5089580E887
:100240000895CF93DF930E943C0485E00E948F02C3
:10025000EC0160E081E00E942E04CE010E94920336
:100260000E9443028235E1F3BE0183E790E00E94E1
:100270000301803809F085E5DF91CF910895CF9390
:100280008091E000833008F043C01092E000C0E0AD
:100290003BC00E9421018535C1F46AE081E00E94E3
:1002A0002E0489E790E00E9492032FEF84E39CE004
:1002B000215080409040E1F700C000008091E000B4
:1002C0008F5F8093E000CF5F1FC06AE081E00E94F3
:1002D0002E048FE790E00E9492032FEF84E39CE0CE
:1002E000215080409040E1F700C000000E943C0493
:1002F00080E890E09093E4008093E3009093E20024
:100300008093E10080E805C0C33018F285E501C0A4
:1003100085E5CF910895CF93DF930E943C0466E07A
:1003200080E00E942E0485E890E00E94920360E045
:1003300081E00E942E048AE890E00E94920361E02E
:1003400084E10E94490660E082E10E94490660E083
:1003500081E10E94490661E080E10E94490690E047
:100360005CC061E085E10E9449062FE788E391E0E7
:10037000215080409040E1F700C000000E944302FD
:100380008D33B1F40E943F018038C1F00E943C04DB
:1003900066E080E00E942E0485E890E00E949203CF
:1003A00062E081E00E942E0489E990E00E949203BD
:1003B000CF5F01C0C0E0CA30A0F201C0D1E0C0E010
:1003C00029C060E085E10E9449062FE788E391E0BB
:1003D000215080409040E1F700C000000E9443029D
:1003E0008D33B9F40E943F0191E08038B1F00E9452
:1003F0003C0466E080E00E942E0485E890E00E94C4
:10040000920362E081E00E942E0489E990E00E945C
:100410009203CF5FCA30A8F201C0D92FDD2351F279
:100420000E943C04DF91CF9108950E944900809181
:10043000E3009091E400893522E0920768F0809112
:10044000E1009091E200853F914018F00E948B01FD
:1004500008950E94EA000895843F21E0920710F475
:100460000E94C9000895CF93C0E009C0EC2FF0E0CE
:10047000E952FF4F61E080810E944906CF5FC4309E
:10048000A8F3CF910895BF92CF92DF92EF92FF929F
:100490000F931F93CF93DF930F2EF2E5BF2EF02D16
:1004A000D12C2FC0ED2CF12CF701E952FF4FC08069
:1004B00060E08C2D0E944906D0E01CC00D2F10E09A
:1004C000F801E552FF4FC0818C2F0E94CE068111AA
:1004D00010C0C701880F991F880F991F89539F4F1C
:1004E000FC01E00FF11FB0808C2F0E94CE06882304
:1004F000D9F3DF5FD43010F361E08C2D0E94490600
:10050000D39483E08D1570F68B2DDF91CF911F91E1
:100510000F91FF90EF90DF90CF90BF9008951F93C1
:10052000CF93DF93182FD0E0C0E010C00E944302A9
:10053000C82F80ED8C0F8A3048F48AE20E948F0326
:10054000ED2FF0E0EB51FF4FC083DF5FCD3311F0B3
:10055000D11760F385EE90E0DF91CF911F91089560
:10056000CF93C82F60E081E00E944906C4FB662754
:1005700060F983E00E944906C5FB662760F984E0C4
:100580000E944906C6FB662760F985E00E9449067D
:100590006C2F661F6627661F86E00E94490661E091
:1005A00082E00E9449068FEC97E00197F1F700C0C6
:1005B000000060E082E00E9449068FEC97E001971E
:1005C000F1F700C000006C2F617083E00E944906C3
:1005D000C1FB662760F984E00E944906C2FB6627DA
:1005E00060F985E00E944906C3FB662760F986E052
:1005F0000E94490661E082E00E9449068FEC97E084
:100600000197F1F700C0000060E082E00E94490617
:100610008FEC97E00197F1F700C00000CF910895AB
:10062000CF93C82F61E081E00E944906C4FB662792
:1006300060F983E00E944906C5FB662760F984E003
:100640000E944906C6FB662760F985E00E944906BC
:100650006C2F661F6627661F86E00E94490661E0D0
:1006600082E00E9449068FEC97E00197F1F700C005
:10067000000060E082E00E9449068FEC97E001975D
:10068000F1F700C000006C2F617083E00E94490602
:10069000C1FB662760F984E00E944906C2FB662719
:1006A00060F985E00E944906C3FB662760F986E091
:1006B0000E94490661E082E00E9449068FEC97E0C3
:1006C0000197F1F700C0000060E082E00E94490657
:1006D0008FEC97E00197F1F700C00000CF910895EB
:1006E0002FEF89EF90E0215080409040E1F700C06B
:1006F000000082E00E94B00288E20E94B0028CE01A
:100700000E94B00281E00E94B0028FEC97E0019756
:10071000F1F700C0000086E00E94B00208950E9438
:10072000100308950F931F93CF93DF938C01C0E0C4
:10073000D0E003C00E9410032196F801EC0FFD1FCA
:1007400080818111F7CFDF91CF911F910F91089593
:100750008F929F92AF92BF92CF92DF92EF92FF92D1
:10076000CF934B015C01672B682B692B19F480E355
:100770000E948F03BB205CF4B094A094909480946A
:10078000811C911CA11CB11C8DE20E948F03C0E052
:10079000C12CD12C760132C0CC0CDD1CEE1CFF1C10
:1007A000D701C601880F991FAA1FBB1F880F991F69
:1007B000AA1FBB1FC80ED91EEA1EFB1EC501B4012D
:1007C0002AE030E040E050E00E942807C60ED71E25
:1007D000E81EF91E672B682B692B31F4C114D10474
:1007E000E104F10409F4CF5FC501B4012AE030E06F
:1007F00040E050E00E94280749015A018114910409
:10080000A104B10449F614C0C701B6012AE030E0E2
:1008100040E050E00E940607822E932EA42EB52EB3
:1008200080E3860F0E948F03C82CD92CEA2CFB2C66
:10083000C114D104E104F10439F704C080E30E943B
:100840008F03C150C111FACFCF91FF90EF90DF908D
:10085000CF90BF90AF909F908F900895811105C069
:10086000862F80680E94B0020895813021F4862F7F
:10087000806C0E94B002089581E00E94B0028FEC6B
:1008800097E00197F1F700C00000089580E00E9412
:100890001C059C01ADECBCEC0E9447079695879522
:1008A000969587959C01220F331F220F331F820FCD
:1008B000931F0596089587E00E941C059C01ADECEE
:1008C000BCEC0E9447079C013695279536952795E5
:1008D0000E94470796958795969587959C01220FCC
:1008E000331F220F331F820F931F08950E94390672
:1008F0000E9470030E94330266E081E00E9483043C
:100900000E941502FDCF8295880F880F807C97B1D9
:10091000982B97B9677096B1692B66B996B19F7D90
:1009200096B996B1906896B9811105C01092610090
:10093000109260000895823031F480E09AE0909344
:10094000610080936000089597B1907E97B997B148
:10095000892B87B986B1806486B93699FECF84B178
:1009600095B10895CF93DF93C0911E01D0E087E049
:100970000E94A404CC0FDD1FC65FDE4F99838883DD
:1009800080911E018F5F80931E018A3011F41092B6
:100990001E0180E020E030E00BC0E82FF0E0EE0F19
:1009A000FF1FE65FFE4F40815181240F351F8F5F8F
:1009B0008A3098F3ADECBCEC0E944707969587957A
:1009C0009695879596958795DF91CF910895CF93CA
:1009D000DF93C0910901D0E080E00E94A404CC0F15
:1009E000DD1FCB50DF4F99838883809109018F5F92
:1009F000809309018A3011F41092090180E020E00F
:100A000030E00BC0E82FF0E0EE0FFF1FEB50FF4F80
:100A100040815181240F351F8F5F8A3098F3ADECF0
:100A2000BCEC0E9447079695879596958795969575
:100A30008795DF91CF910895873021F40E94B20409
:100A40009C0108C0811104C00E94E7049C0102C0FF
:100A500020E030E0A0916000B09161000E94470763
:100A6000DC01CB01072E7AE0B695A795979587957F
:100A70007A95D1F7702D0895982F9695969596951D
:100A80008770613009F455C020F0623009F4A1C0CC
:100A900008959130C1F028F0923039F19330B9F1D6
:100AA00008954AB321E030E0B90102C0660F771F14
:100AB0008A95E2F7CB01942F982B9ABB9BB3809534
:100AC00089238BBB089547B321E030E0B90102C010
:100AD000660F771F8A95E2F7CB01942F982B97BB6F
:100AE00098B38095892388BB089544B321E030E012
:100AF000B90102C0660F771F8A95E2F7CB01942FE8
:100B0000982B94BB95B38095892385BB089541B3F9
:100B100021E030E0B90102C0660F771F8A95E2F745
:100B2000CB01942F982B91BB92B38095892382BBE4
:100B300008959130C1F028F0923039F19330B9F135
:100B400008954AB321E030E0B90102C0660F771F73
:100B50008A95E2F7CB018095942F98239ABB9BB39B
:100B600089238BBB089547B321E030E0B90102C06F
:100B7000660F771F8A95E2F7CB018095942F982313
:100B800097BB98B3892388BB089544B321E030E034
:100B9000B90102C0660F771F8A95E2F7CB018095F5
:100BA000942F982394BB95B3892385BB089541B3B3
:100BB00021E030E0B90102C0660F771F8A95E2F7A5
:100BC000CB018095942F982391BB92B3892382BB4C
:100BD00008959130C1F028F0923039F19330B9F195
:100BE00008954AB321E030E0B90102C0660F771FD3
:100BF0008A95E2F7CB01962F909594239ABB9BB3ED
:100C0000892B8BBB089547B321E030E0B90102C0C6
:100C1000660F771F8A95E2F7CB01962F9095942364
:100C200097BB98B3892B88BB089544B321E030E08B
:100C3000B90102C0660F771F8A95E2F7CB01962FA4
:100C40009095942394BB95B3892B85BB089541B3AC
:100C500021E030E0B90102C0660F771F8A95E2F704
:100C6000CB01962F9095942391BB92B3892B82BB95
:100C70000895CF93C0E009C0EC2FF0E0E955FF4F95
:100C800060818C2F0E943C05CF5FC032A8F3CF91CA
:100C90000895982F96959695969587706130E1F511
:100CA000913099F028F09230E9F0933041F10895B5
:100CB0004BB321E030E0B90102C0660F771F8A957F
:100CC000E2F7CB01842B8BBB089548B321E030E0E1
:100CD000B90102C0660F771F8A95E2F7CB01842B1A
:100CE00088BB089545B321E030E0B90102C0660F2A
:100CF000771F8A95E2F7CB01842B85BB089542B319
:100D000021E030E0B90102C0660F771F8A95E2F753
:100D1000CB01842B82BB089561113FC09130A1F0BB
:100D200028F09230F9F0933059F108954BB321E057
:100D300030E0B90102C0660F771F8A95E2F7CB0158
:100D4000809584238BBB089548B321E030E0B9013E
:100D500002C0660F771F8A95E2F7CB018095842346
:100D600088BB089545B321E030E0B90102C0660FA9
:100D7000771F8A95E2F7CB018095842385BB089580
:100D800042B321E030E0B90102C0660F771F8A95B7
:100D9000E2F7CB018095842382BB0895982F969526
:100DA00096959695482F4770913081F028F09230B3
:100DB000B9F09330F9F028C099B3892F90E002C0C0
:100DC000959587954A95E2F78170089526B330E0AE
:100DD000C90102C0959587954A95E2F781700895FB
:100DE00023B330E0C90102C0959587954A95E2F793
:100DF0008170089520B330E0C90102C095958795B0
:100E00004A95E2F78170089580E00895A1E21A2ED4
:100E1000AA1BBB1BFD010DC0AA1FBB1FEE1FFF1F9E
:100E2000A217B307E407F50720F0A21BB30BE40BEE
:100E3000F50B661F771F881F991F1A9469F7609535
:100E40007095809590959B01AC01BD01CF010895EF
:100E5000052E97FB1EF400940E943F0757FD07D014
:100E60000E94060707FC03D04EF40C943F075095F0
:100E70004095309521953F4F4F4F5F4F0895909586
:100E80008095709561957F4F8F4F9F4F0895A29FDA
:100E9000B001B39FC001A39F700D811D1124911D4E
:100EA000B29F700D811D1124911D0895F894FFCFFC
:100EB00088132020202020200046494E4500484528
:100EC00041540031323334350057524F4E470052AF
:100ED000494748540046495245005052455353270C
:100EE0003D273E52455345540053595354454D20D8
:100EF0004C4F434B4544000100000000000001003E
:100F000000000000000000000000000000000000E1
:100F100000020202020000373839413435364231CE
:100F200032334363303D440C0D0E0F1A1B1C1D0061
:00000001FF
